{
  "contractName": "EvidenceManagementSystem",
  "abi": [
    {
      "inputs": [],
      "stateMutability": "nonpayable",
      "type": "constructor"
    },
    {
      "anonymous": false,
      "inputs": [
        {
          "indexed": true,
          "internalType": "string",
          "name": "caseNumber",
          "type": "string"
        },
        {
          "indexed": false,
          "internalType": "address",
          "name": "investigator",
          "type": "address"
        }
      ],
      "name": "CaseCreated",
      "type": "event"
    },
    {
      "anonymous": false,
      "inputs": [
        {
          "indexed": true,
          "internalType": "string",
          "name": "caseNumber",
          "type": "string"
        },
        {
          "indexed": false,
          "internalType": "address",
          "name": "releasedBy",
          "type": "address"
        }
      ],
      "name": "CaseReleasedToPublic",
      "type": "event"
    },
    {
      "anonymous": false,
      "inputs": [
        {
          "indexed": true,
          "internalType": "string",
          "name": "evidenceId",
          "type": "string"
        },
        {
          "indexed": false,
          "internalType": "address",
          "name": "releasedBy",
          "type": "address"
        }
      ],
      "name": "EvidenceReleasedToPublic",
      "type": "event"
    },
    {
      "anonymous": false,
      "inputs": [
        {
          "indexed": true,
          "internalType": "string",
          "name": "evidenceId",
          "type": "string"
        },
        {
          "indexed": false,
          "internalType": "string",
          "name": "caseNumber",
          "type": "string"
        },
        {
          "indexed": false,
          "internalType": "address",
          "name": "submitter",
          "type": "address"
        }
      ],
      "name": "EvidenceSubmitted",
      "type": "event"
    },
    {
      "anonymous": false,
      "inputs": [
        {
          "indexed": true,
          "internalType": "address",
          "name": "user",
          "type": "address"
        },
        {
          "indexed": false,
          "internalType": "string",
          "name": "name",
          "type": "string"
        },
        {
          "indexed": false,
          "internalType": "enum EvidenceManagementSystem.UserRole",
          "name": "role",
          "type": "uint8"
        }
      ],
      "name": "UserRegistered",
      "type": "event"
    },
    {
      "inputs": [],
      "name": "admin",
      "outputs": [
        {
          "internalType": "address",
          "name": "",
          "type": "address"
        }
      ],
      "stateMutability": "view",
      "type": "function"
    },
    {
      "inputs": [
        {
          "internalType": "uint256",
          "name": "",
          "type": "uint256"
        }
      ],
      "name": "caseNumbers",
      "outputs": [
        {
          "internalType": "string",
          "name": "",
          "type": "string"
        }
      ],
      "stateMutability": "view",
      "type": "function"
    },
    {
      "inputs": [
        {
          "internalType": "string",
          "name": "",
          "type": "string"
        }
      ],
      "name": "cases",
      "outputs": [
        {
          "internalType": "string",
          "name": "caseNumber",
          "type": "string"
        },
        {
          "internalType": "string",
          "name": "caseTitle",
          "type": "string"
        },
        {
          "internalType": "string",
          "name": "description",
          "type": "string"
        },
        {
          "internalType": "enum EvidenceManagementSystem.CaseStatus",
          "name": "status",
          "type": "uint8"
        },
        {
          "internalType": "address",
          "name": "leadInvestigator",
          "type": "address"
        },
        {
          "internalType": "uint256",
          "name": "createdAt",
          "type": "uint256"
        },
        {
          "internalType": "bool",
          "name": "releasedToPublic",
          "type": "bool"
        },
        {
          "internalType": "bool",
          "name": "exists",
          "type": "bool"
        }
      ],
      "stateMutability": "view",
      "type": "function"
    },
    {
      "inputs": [
        {
          "internalType": "string",
          "name": "",
          "type": "string"
        }
      ],
      "name": "evidence",
      "outputs": [
        {
          "internalType": "string",
          "name": "evidenceId",
          "type": "string"
        },
        {
          "internalType": "string",
          "name": "caseNumber",
          "type": "string"
        },
        {
          "internalType": "string",
          "name": "description",
          "type": "string"
        },
        {
          "internalType": "string",
          "name": "ipfsHash",
          "type": "string"
        },
        {
          "internalType": "string",
          "name": "fileType",
          "type": "string"
        },
        {
          "internalType": "address",
          "name": "submittedBy",
          "type": "address"
        },
        {
          "internalType": "uint256",
          "name": "submissionTime",
          "type": "uint256"
        },
        {
          "internalType": "enum EvidenceManagementSystem.EvidenceStatus",
          "name": "status",
          "type": "uint8"
        },
        {
          "internalType": "bool",
          "name": "releasedToPublic",
          "type": "bool"
        },
        {
          "internalType": "bool",
          "name": "exists",
          "type": "bool"
        }
      ],
      "stateMutability": "view",
      "type": "function"
    },
    {
      "inputs": [
        {
          "internalType": "uint256",
          "name": "",
          "type": "uint256"
        }
      ],
      "name": "evidenceIds",
      "outputs": [
        {
          "internalType": "string",
          "name": "",
          "type": "string"
        }
      ],
      "stateMutability": "view",
      "type": "function"
    },
    {
      "inputs": [
        {
          "internalType": "uint256",
          "name": "",
          "type": "uint256"
        }
      ],
      "name": "publicCaseNumbers",
      "outputs": [
        {
          "internalType": "string",
          "name": "",
          "type": "string"
        }
      ],
      "stateMutability": "view",
      "type": "function"
    },
    {
      "inputs": [
        {
          "internalType": "uint256",
          "name": "",
          "type": "uint256"
        }
      ],
      "name": "publicEvidenceIds",
      "outputs": [
        {
          "internalType": "string",
          "name": "",
          "type": "string"
        }
      ],
      "stateMutability": "view",
      "type": "function"
    },
    {
      "inputs": [],
      "name": "totalUsers",
      "outputs": [
        {
          "internalType": "uint256",
          "name": "",
          "type": "uint256"
        }
      ],
      "stateMutability": "view",
      "type": "function"
    },
    {
      "inputs": [
        {
          "internalType": "address",
          "name": "",
          "type": "address"
        }
      ],
      "name": "users",
      "outputs": [
        {
          "internalType": "string",
          "name": "fullName",
          "type": "string"
        },
        {
          "internalType": "string",
          "name": "badgeNumber",
          "type": "string"
        },
        {
          "internalType": "string",
          "name": "department",
          "type": "string"
        },
        {
          "internalType": "enum EvidenceManagementSystem.UserRole",
          "name": "role",
          "type": "uint8"
        },
        {
          "internalType": "bool",
          "name": "isActive",
          "type": "bool"
        },
        {
          "internalType": "bool",
          "name": "isRegistered",
          "type": "bool"
        },
        {
          "internalType": "uint256",
          "name": "registrationDate",
          "type": "uint256"
        }
      ],
      "stateMutability": "view",
      "type": "function"
    },
    {
      "inputs": [
        {
          "internalType": "string",
          "name": "_fullName",
          "type": "string"
        },
        {
          "internalType": "string",
          "name": "_badgeNumber",
          "type": "string"
        },
        {
          "internalType": "string",
          "name": "_department",
          "type": "string"
        },
        {
          "internalType": "enum EvidenceManagementSystem.UserRole",
          "name": "_role",
          "type": "uint8"
        }
      ],
      "name": "registerUser",
      "outputs": [],
      "stateMutability": "nonpayable",
      "type": "function"
    },
    {
      "inputs": [
        {
          "internalType": "string",
          "name": "_fullName",
          "type": "string"
        }
      ],
      "name": "registerAsPublicViewer",
      "outputs": [],
      "stateMutability": "nonpayable",
      "type": "function"
    },
    {
      "inputs": [
        {
          "internalType": "string",
          "name": "_caseNumber",
          "type": "string"
        },
        {
          "internalType": "string",
          "name": "_title",
          "type": "string"
        },
        {
          "internalType": "string",
          "name": "_description",
          "type": "string"
        }
      ],
      "name": "createCase",
      "outputs": [],
      "stateMutability": "nonpayable",
      "type": "function"
    },
    {
      "inputs": [
        {
          "internalType": "string",
          "name": "_evidenceId",
          "type": "string"
        },
        {
          "internalType": "string",
          "name": "_caseNumber",
          "type": "string"
        },
        {
          "internalType": "string",
          "name": "_description",
          "type": "string"
        },
        {
          "internalType": "string",
          "name": "_ipfsHash",
          "type": "string"
        },
        {
          "internalType": "string",
          "name": "_fileType",
          "type": "string"
        }
      ],
      "name": "submitEvidence",
      "outputs": [],
      "stateMutability": "nonpayable",
      "type": "function"
    },
    {
      "inputs": [
        {
          "internalType": "string",
          "name": "_caseNumber",
          "type": "string"
        }
      ],
      "name": "releaseCaseToPublic",
      "outputs": [],
      "stateMutability": "nonpayable",
      "type": "function"
    },
    {
      "inputs": [
        {
          "internalType": "string",
          "name": "_evidenceId",
          "type": "string"
        }
      ],
      "name": "releaseEvidenceToPublic",
      "outputs": [],
      "stateMutability": "nonpayable",
      "type": "function"
    },
    {
      "inputs": [],
      "name": "getPublicCases",
      "outputs": [
        {
          "internalType": "string[]",
          "name": "",
          "type": "string[]"
        }
      ],
      "stateMutability": "view",
      "type": "function"
    },
    {
      "inputs": [],
      "name": "getPublicEvidence",
      "outputs": [
        {
          "internalType": "string[]",
          "name": "",
          "type": "string[]"
        }
      ],
      "stateMutability": "view",
      "type": "function"
    },
    {
      "inputs": [
        {
          "internalType": "address",
          "name": "_user",
          "type": "address"
        }
      ],
      "name": "getUserInfo",
      "outputs": [
        {
          "components": [
            {
              "internalType": "string",
              "name": "fullName",
              "type": "string"
            },
            {
              "internalType": "string",
              "name": "badgeNumber",
              "type": "string"
            },
            {
              "internalType": "string",
              "name": "department",
              "type": "string"
            },
            {
              "internalType": "enum EvidenceManagementSystem.UserRole",
              "name": "role",
              "type": "uint8"
            },
            {
              "internalType": "bool",
              "name": "isActive",
              "type": "bool"
            },
            {
              "internalType": "bool",
              "name": "isRegistered",
              "type": "bool"
            },
            {
              "internalType": "uint256",
              "name": "registrationDate",
              "type": "uint256"
            }
          ],
          "internalType": "struct EvidenceManagementSystem.User",
          "name": "",
          "type": "tuple"
        }
      ],
      "stateMutability": "view",
      "type": "function"
    },
    {
      "inputs": [
        {
          "internalType": "string",
          "name": "_caseNumber",
          "type": "string"
        }
      ],
      "name": "getCaseInfo",
      "outputs": [
        {
          "components": [
            {
              "internalType": "string",
              "name": "caseNumber",
              "type": "string"
            },
            {
              "internalType": "string",
              "name": "caseTitle",
              "type": "string"
            },
            {
              "internalType": "string",
              "name": "description",
              "type": "string"
            },
            {
              "internalType": "enum EvidenceManagementSystem.CaseStatus",
              "name": "status",
              "type": "uint8"
            },
            {
              "internalType": "address",
              "name": "leadInvestigator",
              "type": "address"
            },
            {
              "internalType": "uint256",
              "name": "createdAt",
              "type": "uint256"
            },
            {
              "internalType": "bool",
              "name": "releasedToPublic",
              "type": "bool"
            },
            {
              "internalType": "bool",
              "name": "exists",
              "type": "bool"
            }
          ],
          "internalType": "struct EvidenceManagementSystem.Case",
          "name": "",
          "type": "tuple"
        }
      ],
      "stateMutability": "view",
      "type": "function"
    },
    {
      "inputs": [
        {
          "internalType": "string",
          "name": "_evidenceId",
          "type": "string"
        }
      ],
      "name": "getEvidenceInfo",
      "outputs": [
        {
          "components": [
            {
              "internalType": "string",
              "name": "evidenceId",
              "type": "string"
            },
            {
              "internalType": "string",
              "name": "caseNumber",
              "type": "string"
            },
            {
              "internalType": "string",
              "name": "description",
              "type": "string"
            },
            {
              "internalType": "string",
              "name": "ipfsHash",
              "type": "string"
            },
            {
              "internalType": "string",
              "name": "fileType",
              "type": "string"
            },
            {
              "internalType": "address",
              "name": "submittedBy",
              "type": "address"
            },
            {
              "internalType": "uint256",
              "name": "submissionTime",
              "type": "uint256"
            },
            {
              "internalType": "enum EvidenceManagementSystem.EvidenceStatus",
              "name": "status",
              "type": "uint8"
            },
            {
              "internalType": "bool",
              "name": "releasedToPublic",
              "type": "bool"
            },
            {
              "internalType": "bool",
              "name": "exists",
              "type": "bool"
            }
          ],
          "internalType": "struct EvidenceManagementSystem.Evidence",
          "name": "",
          "type": "tuple"
        }
      ],
      "stateMutability": "view",
      "type": "function"
    },
    {
      "inputs": [],
      "name": "getTotalCases",
      "outputs": [
        {
          "internalType": "uint256",
          "name": "",
          "type": "uint256"
        }
      ],
      "stateMutability": "view",
      "type": "function"
    },
    {
      "inputs": [],
      "name": "getTotalEvidence",
      "outputs": [
        {
          "internalType": "uint256",
          "name": "",
          "type": "uint256"
        }
      ],
      "stateMutability": "view",
      "type": "function"
    },
    {
      "inputs": [],
      "name": "getTotalUsers",
      "outputs": [
        {
          "internalType": "uint256",
          "name": "",
          "type": "uint256"
        }
      ],
      "stateMutability": "view",
      "type": "function"
    }
  ],
  "bytecode": "0x60806040523480156200001157600080fd5b50600880546001600160a01b0319163390811782556040805161012081018252601460e082019081527f53797374656d2041646d696e6973747261746f720000000000000000000000006101008301528152815180830183528481526741444d494e30303160c01b6020808301919091528083019190915282518084018452601581527f53797374656d2041646d696e697374726174696f6e00000000000000000000008183015282840152606082019490945260016080820181905260a08201524260c0820152600092835282845291208151805192939192620000fa9284920190620001ba565b506020828101518051620001159260018501920190620001ba565b506040820151805162000133916002840191602090910190620001ba565b50606082015160038201805460ff191660018360088111156200016657634e487b7160e01b600052602160045260246000fd5b0217905550608082015160038201805460a08501511515620100000262ff0000199315156101000261ff0019909216919091179290921691909117905560c09091015160049091015560016007556200029d565b828054620001c89062000260565b90600052602060002090601f016020900481019282620001ec576000855562000237565b82601f106200020757805160ff191683800117855562000237565b8280016001018555821562000237579182015b82811115620002375782518255916020019190600101906200021a565b506200024592915062000249565b5090565b5b808211156200024557600081556001016200024a565b6002810460018216806200027557607f821691505b602082108114156200029757634e487b7160e01b600052602260045260246000fd5b50919050565b6131b980620002ad6000396000f3fe608060405234801561001057600080fd5b506004361061014d5760003560e01c80637a69b32d116100c3578063bff1f9e11161007c578063bff1f9e1146102d3578063cbf0c6ff146102db578063df965829146102fb578063e7c71bc114610322578063eedaaa4014610335578063f851a440146103485761014d565b80637a69b32d146102595780639b43c004146102615780639be572f6146102695780639d5061f914610271578063a87430ba14610284578063bd283577146102aa5761014d565b80632daf8e90116101155780632daf8e90146101d8578063350ef551146101eb57806336cd1c57146101fe5780636386c1c71461021357806367be97ad1461023357806378abcc12146102465761014d565b806307c27282146101525780630f7714171461017b57806326553440146101905780632972c647146101a557806329faab94146101c5575b600080fd5b6101656101603660046126c7565b61035d565b6040516101729190612e77565b60405180910390f35b61018e610189366004612786565b61062d565b005b61019861085b565b60405161017291906129a7565b6101b86101b33660046128ec565b610934565b6040516101729190612a07565b61018e6101d33660046126c7565b6109e0565b6101b86101e63660046128ec565b610bce565b61018e6101f93660046126c7565b610bde565b610206610e08565b60405161017291906130bc565b610226610221366004612699565b610e0e565b6040516101729190613021565b61018e6102413660046126c7565b611072565b6101b86102543660046128ec565b61128a565b61020661129a565b6101986112a0565b610206611370565b61018e61027f366004612702565b611376565b610297610292366004612699565b611635565b6040516101729796959493929190612ae3565b6102bd6102b83660046126c7565b611811565b6040516101729a99989796959493929190612b4a565b610206611b25565b6102ee6102e93660046126c7565b611b2b565b6040516101729190612f33565b61030e6103093660046126c7565b611f18565b604051610172989796959493929190612a66565b61018e610330366004612820565b61210c565b6101b86103433660046128ec565b612425565b610350612435565b6040516101729190612993565b610365612444565b6001826040516103759190612977565b9081526040519081900360200190206005015460ff610100909104166103b65760405162461bcd60e51b81526004016103ad90612ddc565b60405180910390fd5b6001826040516103c69190612977565b9081526020016040518091039020604051806101000160405290816000820180546103f0906130f5565b80601f016020809104026020016040519081016040528092919081815260200182805461041c906130f5565b80156104695780601f1061043e57610100808354040283529160200191610469565b820191906000526020600020905b81548152906001019060200180831161044c57829003601f168201915b50505050508152602001600182018054610482906130f5565b80601f01602080910402602001604051908101604052809291908181526020018280546104ae906130f5565b80156104fb5780601f106104d0576101008083540402835291602001916104fb565b820191906000526020600020905b8154815290600101906020018083116104de57829003601f168201915b50505050508152602001600282018054610514906130f5565b80601f0160208091040260200160405190810160405280929190818152602001828054610540906130f5565b801561058d5780601f106105625761010080835404028352916020019161058d565b820191906000526020600020905b81548152906001019060200180831161057057829003601f168201915b505050918352505060038281015460209092019160ff16908111156105c257634e487b7160e01b600052602160045260246000fd5b60038111156105e157634e487b7160e01b600052602160045260246000fd5b81526003820154610100908190046001600160a01b031660208301526004830154604083015260059092015460ff80821615156060840152929004909116151560809091015292915050565b3360009081526020819052604090206003015462010000900460ff16156106665760405162461bcd60e51b81526004016103ad90612e09565b600081600881111561068857634e487b7160e01b600052602160045260246000fd5b141580156106b6575060088160088111156106b357634e487b7160e01b600052602160045260246000fd5b14155b6106d25760405162461bcd60e51b81526004016103ad90612cdc565b6040518060e0016040528085815260200184815260200183815260200182600881111561070f57634e487b7160e01b600052602160045260246000fd5b815260016020808301829052604080840192909252426060909301929092523360009081528083522082518051919261074d928492909101906124a8565b50602082810151805161076692600185019201906124a8565b50604082015180516107829160028401916020909101906124a8565b50606082015160038201805460ff191660018360088111156107b457634e487b7160e01b600052602160045260246000fd5b0217905550608082015160038201805460a08501511515620100000262ff0000199315156101000261ff0019909216919091179290921691909117905560c0909101516004909101556007805490600061080d83613130565b9190505550336001600160a01b03167fc2e5d5da58bd71d1a2d14cdef02a4256d971b728088f8190d067ccfbae3bd73e858360405161084d929190612a44565b60405180910390a250505050565b60606006805480602002602001604051908101604052809291908181526020016000905b8282101561092b57838290600052602060002001805461089e906130f5565b80601f01602080910402602001604051908101604052809291908181526020018280546108ca906130f5565b80156109175780601f106108ec57610100808354040283529160200191610917565b820191906000526020600020905b8154815290600101906020018083116108fa57829003601f168201915b50505050508152602001906001019061087f565b50505050905090565b6006818154811061094457600080fd5b90600052602060002001600091509050805461095f906130f5565b80601f016020809104026020016040519081016040528092919081815260200182805461098b906130f5565b80156109d85780601f106109ad576101008083540402835291602001916109d8565b820191906000526020600020905b8154815290600101906020018083116109bb57829003601f168201915b505050505081565b3360009081526020819052604090206003015462010000900460ff1615610a195760405162461bcd60e51b81526004016103ad90612e09565b6040518060e00160405280828152602001604051806020016040528060008152508152602001604051806040016040528060068152602001655075626c696360d01b815250815260200160016008811115610a8457634e487b7160e01b600052602160045260246000fd5b8152600160208083018290526040808401929092524260609093019290925233600090815280835220825180519192610ac2928492909101906124a8565b506020828101518051610adb92600185019201906124a8565b5060408201518051610af79160028401916020909101906124a8565b50606082015160038201805460ff19166001836008811115610b2957634e487b7160e01b600052602160045260246000fd5b0217905550608082015160038201805460a08501511515620100000262ff0000199315156101000261ff0019909216919091179290921691909117905560c09091015160049091015560078054906000610b8283613130565b9190505550336001600160a01b03167fc2e5d5da58bd71d1a2d14cdef02a4256d971b728088f8190d067ccfbae3bd73e826001604051610bc3929190612a44565b60405180910390a250565b6005818154811061094457600080fd5b60053360009081526020819052604090206003015460ff166008811115610c1557634e487b7160e01b600052602160045260246000fd5b1480610c55575060063360009081526020819052604090206003015460ff166008811115610c5357634e487b7160e01b600052602160045260246000fd5b145b80610c94575060083360009081526020819052604090206003015460ff166008811115610c9257634e487b7160e01b600052602160045260246000fd5b145b610cb05760405162461bcd60e51b81526004016103ad90612d02565b600281604051610cc09190612977565b9081526040519081900360200190206007015460ff6201000090910416610cf95760405162461bcd60e51b81526004016103ad90612bf4565b600281604051610d099190612977565b9081526040519081900360200190206007015460ff6101009091041615610d425760405162461bcd60e51b81526004016103ad90612c2b565b6001600282604051610d549190612977565b90815260405160209181900382019020600701805461ff0019166101009315159390930292909217909155600680546001810182556000919091528251610dc2927ff652222313e28459528d920b65115c16c04f3efc82aaedc97be59f3f377c0d3f909201918401906124a8565b5080604051610dd19190612977565b60405180910390207fabc73d7263170c5c844f0c26bc30d1fdffefe37bb2b369c48cfab51839055a7633604051610bc39190612993565b60045490565b610e1661252c565b6001600160a01b03821660009081526020819052604090819020815160e08101909252805482908290610e48906130f5565b80601f0160208091040260200160405190810160405280929190818152602001828054610e74906130f5565b8015610ec15780601f10610e9657610100808354040283529160200191610ec1565b820191906000526020600020905b815481529060010190602001808311610ea457829003601f168201915b50505050508152602001600182018054610eda906130f5565b80601f0160208091040260200160405190810160405280929190818152602001828054610f06906130f5565b8015610f535780601f10610f2857610100808354040283529160200191610f53565b820191906000526020600020905b815481529060010190602001808311610f3657829003601f168201915b50505050508152602001600282018054610f6c906130f5565b80601f0160208091040260200160405190810160405280929190818152602001828054610f98906130f5565b8015610fe55780601f10610fba57610100808354040283529160200191610fe5565b820191906000526020600020905b815481529060010190602001808311610fc857829003601f168201915b5050509183525050600382015460209091019060ff16600881111561101a57634e487b7160e01b600052602160045260246000fd5b600881111561103957634e487b7160e01b600052602160045260246000fd5b8152600382015460ff61010082048116151560208401526201000090910416151560408201526004909101546060909101529050919050565b60053360009081526020819052604090206003015460ff1660088111156110a957634e487b7160e01b600052602160045260246000fd5b14806110e9575060063360009081526020819052604090206003015460ff1660088111156110e757634e487b7160e01b600052602160045260246000fd5b145b80611128575060083360009081526020819052604090206003015460ff16600881111561112657634e487b7160e01b600052602160045260246000fd5b145b6111445760405162461bcd60e51b81526004016103ad90612d02565b6001816040516111549190612977565b9081526040519081900360200190206005015460ff6101009091041661118c5760405162461bcd60e51b81526004016103ad90612ddc565b60018160405161119c9190612977565b9081526040519081900360200190206005015460ff16156111cf5760405162461bcd60e51b81526004016103ad90612ca5565b600180826040516111e09190612977565b908152604051602091819003820190206005908101805460ff19169315159390931790925581546001810183556000929092528251611244927f036b6384b5eca791c62761152d0c79bb0604c104a5fb6f4eb0703f3154bb3db001918401906124a8565b50806040516112539190612977565b60405180910390207f4ca77501bb55b1fcdecfd24304f46add65ffae24110e8d1a19d988674afbfbfe33604051610bc39190612993565b6003818154811061094457600080fd5b60035490565b60606005805480602002602001604051908101604052809291908181526020016000905b8282101561092b5783829060005260206000200180546112e3906130f5565b80601f016020809104026020016040519081016040528092919081815260200182805461130f906130f5565b801561135c5780601f106113315761010080835404028352916020019161135c565b820191906000526020600020905b81548152906001019060200180831161133f57829003601f168201915b5050505050815260200190600101906112c4565b60075490565b60023360009081526020819052604090206003015460ff1660088111156113ad57634e487b7160e01b600052602160045260246000fd5b14806113ed575060083360009081526020819052604090206003015460ff1660088111156113eb57634e487b7160e01b600052602160045260246000fd5b145b6114095760405162461bcd60e51b81526004016103ad90612c6e565b6001836040516114199190612977565b9081526040519081900360200190206005015460ff61010090910416156114525760405162461bcd60e51b81526004016103ad90612daf565b6040805161010081018252848152602081018490528082018390526000606082018190523360808301524260a083015260c0820152600160e0820181905291519091906114a0908690612977565b908152602001604051809103902060008201518160000190805190602001906114ca9291906124a8565b5060208281015180516114e392600185019201906124a8565b50604082015180516114ff9160028401916020909101906124a8565b5060608201518160030160006101000a81548160ff0219169083600381111561153857634e487b7160e01b600052602160045260246000fd5b0217905550608082015160038281018054610100600160a81b0319166101006001600160a01b03909416840217905560a0840151600484015560c08401516005909301805460e09095015160ff199095169315159390931761ff001916931515909102929092179055805460018101825560009190915283516115e2917fc2575a0e9e593c00f959f8c92f12db2869c3395a3b0502d05e2516446f71f85b019060208601906124a8565b50826040516115f19190612977565b60405180910390207f46cd6775a5e99cf8bf52e9c34d3afa9cfdfb7f1a539b2e1354e402f99bd6ac81336040516116289190612993565b60405180910390a2505050565b600060208190529081526040902080548190611650906130f5565b80601f016020809104026020016040519081016040528092919081815260200182805461167c906130f5565b80156116c95780601f1061169e576101008083540402835291602001916116c9565b820191906000526020600020905b8154815290600101906020018083116116ac57829003601f168201915b5050505050908060010180546116de906130f5565b80601f016020809104026020016040519081016040528092919081815260200182805461170a906130f5565b80156117575780601f1061172c57610100808354040283529160200191611757565b820191906000526020600020905b81548152906001019060200180831161173a57829003601f168201915b50505050509080600201805461176c906130f5565b80601f0160208091040260200160405190810160405280929190818152602001828054611798906130f5565b80156117e55780601f106117ba576101008083540402835291602001916117e5565b820191906000526020600020905b8154815290600101906020018083116117c857829003601f168201915b5050506003840154600490940154929360ff808216946101008304821694506201000090920416915087565b8051602081830181018051600282529282019190930120915280548190611837906130f5565b80601f0160208091040260200160405190810160405280929190818152602001828054611863906130f5565b80156118b05780601f10611885576101008083540402835291602001916118b0565b820191906000526020600020905b81548152906001019060200180831161189357829003601f168201915b5050505050908060010180546118c5906130f5565b80601f01602080910402602001604051908101604052809291908181526020018280546118f1906130f5565b801561193e5780601f106119135761010080835404028352916020019161193e565b820191906000526020600020905b81548152906001019060200180831161192157829003601f168201915b505050505090806002018054611953906130f5565b80601f016020809104026020016040519081016040528092919081815260200182805461197f906130f5565b80156119cc5780601f106119a1576101008083540402835291602001916119cc565b820191906000526020600020905b8154815290600101906020018083116119af57829003601f168201915b5050505050908060030180546119e1906130f5565b80601f0160208091040260200160405190810160405280929190818152602001828054611a0d906130f5565b8015611a5a5780601f10611a2f57610100808354040283529160200191611a5a565b820191906000526020600020905b815481529060010190602001808311611a3d57829003601f168201915b505050505090806004018054611a6f906130f5565b80601f0160208091040260200160405190810160405280929190818152602001828054611a9b906130f5565b8015611ae85780601f10611abd57610100808354040283529160200191611ae8565b820191906000526020600020905b815481529060010190602001808311611acb57829003601f168201915b5050506005840154600685015460079095015493946001600160a01b039091169390925060ff80821692506101008204811691620100009004168a565b60075481565b611b33612588565b600282604051611b439190612977565b9081526040519081900360200190206007015460ff6201000090910416611b7c5760405162461bcd60e51b81526004016103ad90612bf4565b600282604051611b8c9190612977565b908152602001604051809103902060405180610140016040529081600082018054611bb6906130f5565b80601f0160208091040260200160405190810160405280929190818152602001828054611be2906130f5565b8015611c2f5780601f10611c0457610100808354040283529160200191611c2f565b820191906000526020600020905b815481529060010190602001808311611c1257829003601f168201915b50505050508152602001600182018054611c48906130f5565b80601f0160208091040260200160405190810160405280929190818152602001828054611c74906130f5565b8015611cc15780601f10611c9657610100808354040283529160200191611cc1565b820191906000526020600020905b815481529060010190602001808311611ca457829003601f168201915b50505050508152602001600282018054611cda906130f5565b80601f0160208091040260200160405190810160405280929190818152602001828054611d06906130f5565b8015611d535780601f10611d2857610100808354040283529160200191611d53565b820191906000526020600020905b815481529060010190602001808311611d3657829003601f168201915b50505050508152602001600382018054611d6c906130f5565b80601f0160208091040260200160405190810160405280929190818152602001828054611d98906130f5565b8015611de55780601f10611dba57610100808354040283529160200191611de5565b820191906000526020600020905b815481529060010190602001808311611dc857829003601f168201915b50505050508152602001600482018054611dfe906130f5565b80601f0160208091040260200160405190810160405280929190818152602001828054611e2a906130f5565b8015611e775780601f10611e4c57610100808354040283529160200191611e77565b820191906000526020600020905b815481529060010190602001808311611e5a57829003601f168201915b505050918352505060058201546001600160a01b0316602082015260068201546040820152600782015460609091019060ff166004811115611ec957634e487b7160e01b600052602160045260246000fd5b6004811115611ee857634e487b7160e01b600052602160045260246000fd5b81526007919091015460ff6101008204811615156020840152620100009091041615156040909101529050919050565b8051602081830181018051600182529282019190930120915280548190611f3e906130f5565b80601f0160208091040260200160405190810160405280929190818152602001828054611f6a906130f5565b8015611fb75780601f10611f8c57610100808354040283529160200191611fb7565b820191906000526020600020905b815481529060010190602001808311611f9a57829003601f168201915b505050505090806001018054611fcc906130f5565b80601f0160208091040260200160405190810160405280929190818152602001828054611ff8906130f5565b80156120455780601f1061201a57610100808354040283529160200191612045565b820191906000526020600020905b81548152906001019060200180831161202857829003601f168201915b50505050509080600201805461205a906130f5565b80601f0160208091040260200160405190810160405280929190818152602001828054612086906130f5565b80156120d35780601f106120a8576101008083540402835291602001916120d3565b820191906000526020600020905b8154815290600101906020018083116120b657829003601f168201915b5050505060038301546004840154600590940154929360ff80831694610100938490046001600160a01b03169450919281831692041688565b3360009081526020819052604090206003015462010000900460ff16801561214b575033600090815260208190526040902060030154610100900460ff165b6121675760405162461bcd60e51b81526004016103ad90612d78565b6002856040516121779190612977565b9081526040519081900360200190206007015460ff6201000090910416156121b15760405162461bcd60e51b81526004016103ad90612e40565b6001846040516121c19190612977565b9081526040519081900360200190206005015460ff610100909104166121f95760405162461bcd60e51b81526004016103ad90612ddc565b60408051610140810182528681526020810186905290810184905260608101839052608081018290523360a08201524260c082015260e081016000815260006020820152600160409182015251600290612254908890612977565b9081526020016040518091039020600082015181600001908051906020019061227e9291906124a8565b50602082810151805161229792600185019201906124a8565b50604082015180516122b39160028401916020909101906124a8565b50606082015180516122cf9160038401916020909101906124a8565b50608082015180516122eb9160048401916020909101906124a8565b5060a08201516005820180546001600160a01b0319166001600160a01b0390921691909117905560c0820151600682015560e082015160078201805460ff1916600183600481111561234d57634e487b7160e01b600052602160045260246000fd5b02179055506101008281015160079092018054610120909401511515620100000262ff00001993151590920261ff001990941693909317919091161790556004805460018101825560009190915285516123ce917f8a35acfbc15ff81a39ae7d344fd709f28e8600b4aa8c65c6b64bfe7fe36bd19b019060208801906124a8565b50846040516123dd9190612977565b60405180910390207f1ebaa2781dc2c56417cd650c43f9d0a628ed91ab5a8989acda536807e98523278533604051612416929190612a1a565b60405180910390a25050505050565b6004818154811061094457600080fd5b6008546001600160a01b031681565b6040518061010001604052806060815260200160608152602001606081526020016000600381111561248657634e487b7160e01b600052602160045260246000fd5b8152600060208201819052604082018190526060820181905260809091015290565b8280546124b4906130f5565b90600052602060002090601f0160209004810192826124d6576000855561251c565b82601f106124ef57805160ff191683800117855561251c565b8280016001018555821561251c579182015b8281111561251c578251825591602001919060010190612501565b50612528929150612603565b5090565b6040518060e001604052806060815260200160608152602001606081526020016000600881111561256d57634e487b7160e01b600052602160045260246000fd5b81526000602082018190526040820181905260609091015290565b604051806101400160405280606081526020016060815260200160608152602001606081526020016060815260200160006001600160a01b0316815260200160008152602001600060048111156125ef57634e487b7160e01b600052602160045260246000fd5b815260006020820181905260409091015290565b5b808211156125285760008155600101612604565b600082601f830112612628578081fd5b813567ffffffffffffffff808211156126435761264361316d565b604051601f8301601f1916810160200182811182821017156126675761266761316d565b60405282815284830160200186101561267e578384fd5b82602086016020830137918201602001929092529392505050565b6000602082840312156126aa578081fd5b81356001600160a01b03811681146126c0578182fd5b9392505050565b6000602082840312156126d8578081fd5b813567ffffffffffffffff8111156126ee578182fd5b6126fa84828501612618565b949350505050565b600080600060608486031215612716578182fd5b833567ffffffffffffffff8082111561272d578384fd5b61273987838801612618565b9450602086013591508082111561274e578384fd5b61275a87838801612618565b9350604086013591508082111561276f578283fd5b5061277c86828701612618565b9150509250925092565b6000806000806080858703121561279b578081fd5b843567ffffffffffffffff808211156127b2578283fd5b6127be88838901612618565b955060208701359150808211156127d3578283fd5b6127df88838901612618565b945060408701359150808211156127f4578283fd5b5061280187828801612618565b925050606085013560098110612815578182fd5b939692955090935050565b600080600080600060a08688031215612837578081fd5b853567ffffffffffffffff8082111561284e578283fd5b61285a89838a01612618565b9650602088013591508082111561286f578283fd5b61287b89838a01612618565b95506040880135915080821115612890578283fd5b61289c89838a01612618565b945060608801359150808211156128b1578283fd5b6128bd89838a01612618565b935060808801359150808211156128d2578283fd5b506128df88828901612618565b9150509295509295909350565b6000602082840312156128fd578081fd5b5035919050565b6001600160a01b03169052565b15159052565b6004811061292757612927613157565b9052565b6005811061292757612927613157565b6009811061292757612927613157565b600081518084526129638160208601602086016130c5565b601f01601f19169290920160200192915050565b600082516129898184602087016130c5565b9190910192915050565b6001600160a01b0391909116815260200190565b6000602080830181845280855180835260408601915060408482028701019250838701855b828110156129fa57603f198886030184526129e885835161294b565b945092850192908501906001016129cc565b5092979650505050505050565b6000602082526126c0602083018461294b565b600060408252612a2d604083018561294b565b905060018060a01b03831660208301529392505050565b600060408252612a57604083018561294b565b90506126c0602083018461293b565b6000610100808352612a7a8184018c61294b565b90508281036020840152612a8e818b61294b565b90508281036040840152612aa2818a61294b565b915050612ab26060830188612917565b6001600160a01b0395909516608082015260a081019390935290151560c0830152151560e090910152949350505050565b600060e08252612af660e083018a61294b565b8281036020840152612b08818a61294b565b90508281036040840152612b1c818961294b565b915050612b2c606083018761293b565b931515608082015291151560a083015260c090910152949350505050565b6000610140808352612b5e8184018e61294b565b90508281036020840152612b72818d61294b565b90508281036040840152612b86818c61294b565b90508281036060840152612b9a818b61294b565b90508281036080840152612bae818a61294b565b6001600160a01b03891660a085015260c084018890529150612bd5905060e083018661292b565b9215156101008201529015156101209091015298975050505050505050565b60208082526017908201527f45766964656e636520646f6573206e6f74206578697374000000000000000000604082015260600190565b60208082526023908201527f45766964656e636520616c72656164792072656c656173656420746f207075626040820152626c696360e81b606082015260800190565b6020808252601a908201527f4f6e6c7920696e76657374696761746f727320616c6c6f776564000000000000604082015260600190565b6020808252601f908201527f4361736520616c72656164792072656c656173656420746f207075626c696300604082015260600190565b6020808252600c908201526b496e76616c696420726f6c6560a01b604082015260600190565b60208082526050908201527f4f6e6c7920636f757274206f6666696369616c732c2065766964656e6365206d60408201527f616e61676572732c206f722061646d696e6973747261746f72732063616e207260608201526f656c6561736520746f207075626c696360801b608082015260a00190565b6020808252601f908201527f55736572206e6f742072656769737465726564206f7220696e61637469766500604082015260600190565b6020808252601390820152724361736520616c72656164792065786973747360681b604082015260600190565b60208082526013908201527210d85cd948191bd95cc81b9bdd08195e1a5cdd606a1b604082015260600190565b60208082526017908201527f5573657220616c72656164792072656769737465726564000000000000000000604082015260600190565b60208082526017908201527f45766964656e636520616c726561647920657869737473000000000000000000604082015260600190565b6000602082528251610100806020850152612e9661012085018361294b565b91506020850151601f1980868503016040870152612eb4848361294b565b9350604087015191508086850301606087015250612ed2838261294b565b9250506060850151612ee76080860182612917565b506080850151612efa60a0860182612904565b5060a085015160c085015260c0850151612f1760e0860182612911565b5060e0850151612f2982860182612911565b5090949350505050565b6000602082528251610140806020850152612f5261016085018361294b565b91506020850151601f1980868503016040870152612f70848361294b565b93506040870151915080868503016060870152612f8d848361294b565b93506060870151915080868503016080870152612faa848361294b565b935060808701519150808685030160a087015250612fc8838261294b565b92505060a0850151612fdd60c0860182612904565b5060c085015160e085015260e0850151610100612ffc8187018361292b565b860151905061012061301086820183612911565b8601519050612f2985830182612911565b600060208252825160e0602084015261303e61010084018261294b565b90506020840151601f198085840301604086015261305c838361294b565b925060408601519150808584030160608601525061307a828261294b565b915050606084015161308f608085018261293b565b506080840151151560a084015260a0840151151560c084015260c084015160e08401528091505092915050565b90815260200190565b60005b838110156130e05781810151838201526020016130c8565b838111156130ef576000848401525b50505050565b60028104600182168061310957607f821691505b6020821081141561312a57634e487b7160e01b600052602260045260246000fd5b50919050565b600060001982141561315057634e487b7160e01b81526011600452602481fd5b5060010190565b634e487b7160e01b600052602160045260246000fd5b634e487b7160e01b600052604160045260246000fdfea26469706673582212201add39d9522a65cbbe4e40f13ec8305accfdd282442835b1c508456b6cd118b964736f6c63430008000033",
  "immutableReferences": {},
  "source": "// SPDX-License-Identifier: MIT\npragma solidity ^0.8.0;\n\ncontract EvidenceManagementSystem {\n    \n    enum UserRole { None, PublicViewer, Investigator, ForensicAnalyst, LegalProfessional, CourtOfficial, EvidenceManager, Auditor, Administrator }\n    enum CaseStatus { Open, UnderReview, Closed, Archived }\n    enum EvidenceStatus { Submitted, Verified, Challenged, Accepted, Rejected }\n    \n    struct User {\n        string fullName;\n        string badgeNumber;\n        string department;\n        UserRole role;\n        bool isActive;\n        bool isRegistered;\n        uint256 registrationDate;\n    }\n    \n    struct Case {\n        string caseNumber;\n        string caseTitle;\n        string description;\n        CaseStatus status;\n        address leadInvestigator;\n        uint256 createdAt;\n        bool releasedToPublic;\n        bool exists;\n    }\n    \n    struct Evidence {\n        string evidenceId;\n        string caseNumber;\n        string description;\n        string ipfsHash;\n        string fileType;\n        address submittedBy;\n        uint256 submissionTime;\n        EvidenceStatus status;\n        bool releasedToPublic;\n        bool exists;\n    }\n    \n    mapping(address => User) public users;\n    mapping(string => Case) public cases;\n    mapping(string => Evidence) public evidence;\n    \n    string[] public caseNumbers;\n    string[] public evidenceIds;\n    string[] public publicCaseNumbers;\n    string[] public publicEvidenceIds;\n    \n    uint256 public totalUsers;\n    address public admin;\n    \n    event UserRegistered(address indexed user, string name, UserRole role);\n    event CaseCreated(string indexed caseNumber, address investigator);\n    event EvidenceSubmitted(string indexed evidenceId, string caseNumber, address submitter);\n    event CaseReleasedToPublic(string indexed caseNumber, address releasedBy);\n    event EvidenceReleasedToPublic(string indexed evidenceId, address releasedBy);\n    \n    modifier onlyRegistered() {\n        require(users[msg.sender].isRegistered && users[msg.sender].isActive, \"User not registered or inactive\");\n        _;\n    }\n    \n    modifier onlyInvestigator() {\n        require(users[msg.sender].role == UserRole.Investigator || users[msg.sender].role == UserRole.Administrator, \"Only investigators allowed\");\n        _;\n    }\n    \n    modifier canReleaseToPublic() {\n        require(\n            users[msg.sender].role == UserRole.CourtOfficial || \n            users[msg.sender].role == UserRole.EvidenceManager || \n            users[msg.sender].role == UserRole.Administrator, \n            \"Only court officials, evidence managers, or administrators can release to public\"\n        );\n        _;\n    }\n    \n    constructor() {\n        admin = msg.sender;\n        users[msg.sender] = User({\n            fullName: \"System Administrator\",\n            badgeNumber: \"ADMIN001\",\n            department: \"System Administration\",\n            role: UserRole.Administrator,\n            isActive: true,\n            isRegistered: true,\n            registrationDate: block.timestamp\n        });\n        totalUsers = 1;\n    }\n    \n    function registerUser(\n        string memory _fullName,\n        string memory _badgeNumber,\n        string memory _department,\n        UserRole _role\n    ) public {\n        require(!users[msg.sender].isRegistered, \"User already registered\");\n        require(_role != UserRole.None && _role != UserRole.Administrator, \"Invalid role\");\n        \n        users[msg.sender] = User({\n            fullName: _fullName,\n            badgeNumber: _badgeNumber,\n            department: _department,\n            role: _role,\n            isActive: true,\n            isRegistered: true,\n            registrationDate: block.timestamp\n        });\n        \n        totalUsers++;\n        emit UserRegistered(msg.sender, _fullName, _role);\n    }\n    \n    function registerAsPublicViewer(string memory _fullName) public {\n        require(!users[msg.sender].isRegistered, \"User already registered\");\n        \n        users[msg.sender] = User({\n            fullName: _fullName,\n            badgeNumber: \"\",\n            department: \"Public\",\n            role: UserRole.PublicViewer,\n            isActive: true,\n            isRegistered: true,\n            registrationDate: block.timestamp\n        });\n        \n        totalUsers++;\n        emit UserRegistered(msg.sender, _fullName, UserRole.PublicViewer);\n    }\n    \n    function createCase(\n        string memory _caseNumber,\n        string memory _title,\n        string memory _description\n    ) public onlyInvestigator {\n        require(!cases[_caseNumber].exists, \"Case already exists\");\n        \n        cases[_caseNumber] = Case({\n            caseNumber: _caseNumber,\n            caseTitle: _title,\n            description: _description,\n            status: CaseStatus.Open,\n            leadInvestigator: msg.sender,\n            createdAt: block.timestamp,\n            releasedToPublic: false,\n            exists: true\n        });\n        \n        caseNumbers.push(_caseNumber);\n        emit CaseCreated(_caseNumber, msg.sender);\n    }\n    \n    function submitEvidence(\n        string memory _evidenceId,\n        string memory _caseNumber,\n        string memory _description,\n        string memory _ipfsHash,\n        string memory _fileType\n    ) public onlyRegistered {\n        require(!evidence[_evidenceId].exists, \"Evidence already exists\");\n        require(cases[_caseNumber].exists, \"Case does not exist\");\n        \n        evidence[_evidenceId] = Evidence({\n            evidenceId: _evidenceId,\n            caseNumber: _caseNumber,\n            description: _description,\n            ipfsHash: _ipfsHash,\n            fileType: _fileType,\n            submittedBy: msg.sender,\n            submissionTime: block.timestamp,\n            status: EvidenceStatus.Submitted,\n            releasedToPublic: false,\n            exists: true\n        });\n        \n        evidenceIds.push(_evidenceId);\n        emit EvidenceSubmitted(_evidenceId, _caseNumber, msg.sender);\n    }\n    \n    function releaseCaseToPublic(string memory _caseNumber) public canReleaseToPublic {\n        require(cases[_caseNumber].exists, \"Case does not exist\");\n        require(!cases[_caseNumber].releasedToPublic, \"Case already released to public\");\n        \n        cases[_caseNumber].releasedToPublic = true;\n        publicCaseNumbers.push(_caseNumber);\n        emit CaseReleasedToPublic(_caseNumber, msg.sender);\n    }\n    \n    function releaseEvidenceToPublic(string memory _evidenceId) public canReleaseToPublic {\n        require(evidence[_evidenceId].exists, \"Evidence does not exist\");\n        require(!evidence[_evidenceId].releasedToPublic, \"Evidence already released to public\");\n        \n        evidence[_evidenceId].releasedToPublic = true;\n        publicEvidenceIds.push(_evidenceId);\n        emit EvidenceReleasedToPublic(_evidenceId, msg.sender);\n    }\n    \n    function getPublicCases() public view returns (string[] memory) {\n        return publicCaseNumbers;\n    }\n    \n    function getPublicEvidence() public view returns (string[] memory) {\n        return publicEvidenceIds;\n    }\n    \n    function getUserInfo(address _user) public view returns (User memory) {\n        return users[_user];\n    }\n    \n    function getCaseInfo(string memory _caseNumber) public view returns (Case memory) {\n        require(cases[_caseNumber].exists, \"Case does not exist\");\n        return cases[_caseNumber];\n    }\n    \n    function getEvidenceInfo(string memory _evidenceId) public view returns (Evidence memory) {\n        require(evidence[_evidenceId].exists, \"Evidence does not exist\");\n        return evidence[_evidenceId];\n    }\n    \n    function getTotalCases() public view returns (uint256) {\n        return caseNumbers.length;\n    }\n    \n    function getTotalEvidence() public view returns (uint256) {\n        return evidenceIds.length;\n    }\n    \n    function getTotalUsers() public view returns (uint256) {\n        return totalUsers;\n    }\n}",
  "sourcePath": "d:\\projects and intership\\Evid-block chain\\evidence-management-system\\contracts\\EvidenceManagementSystem.sol",
  "compiler": {
    "name": "solc",
    "version": "0.8.0+commit.c7dfd78e.Emscripten.clang"
  },
  "schemaVersion": "3.4.16",
  "updatedAt": "2025-12-05T15:18:43.874Z",
  "devdoc": {
    "kind": "dev",
    "methods": {},
    "version": 1
  },
  "userdoc": {
    "kind": "user",
    "methods": {},
    "version": 1
  }
}